{
  "_format": "hh-sol-artifact-1",
  "contractName": "LSP6KeyManager",
  "sourceName": "contracts/LSP6KeyManager/LSP6KeyManager.sol",
  "abi": [
    {
      "inputs": [
        {
          "internalType": "address",
          "name": "target_",
          "type": "address"
        }
      ],
      "stateMutability": "nonpayable",
      "type": "constructor"
    },
    {
      "inputs": [],
      "name": "BatchExecuteParamsLengthMismatch",
      "type": "error"
    },
    {
      "inputs": [],
      "name": "BatchExecuteRelayCallParamsLengthMismatch",
      "type": "error"
    },
    {
      "inputs": [],
      "name": "CallingKeyManagerNotAllowed",
      "type": "error"
    },
    {
      "inputs": [],
      "name": "CannotSendValueToSetData",
      "type": "error"
    },
    {
      "inputs": [],
      "name": "DelegateCallDisallowedViaKeyManager",
      "type": "error"
    },
    {
      "inputs": [],
      "name": "ERC725Y_DataKeysValuesLengthMismatch",
      "type": "error"
    },
    {
      "inputs": [
        {
          "internalType": "bytes32",
          "name": "dataKey",
          "type": "bytes32"
        },
        {
          "internalType": "bytes",
          "name": "dataValue",
          "type": "bytes"
        }
      ],
      "name": "InvalidDataValuesForDataKeys",
      "type": "error"
    },
    {
      "inputs": [
        {
          "internalType": "bytes4",
          "name": "invalidFunction",
          "type": "bytes4"
        }
      ],
      "name": "InvalidERC725Function",
      "type": "error"
    },
    {
      "inputs": [
        {
          "internalType": "bytes",
          "name": "allowedCallsValue",
          "type": "bytes"
        }
      ],
      "name": "InvalidEncodedAllowedCalls",
      "type": "error"
    },
    {
      "inputs": [
        {
          "internalType": "bytes",
          "name": "value",
          "type": "bytes"
        },
        {
          "internalType": "string",
          "name": "context",
          "type": "string"
        }
      ],
      "name": "InvalidEncodedAllowedERC725YDataKeys",
      "type": "error"
    },
    {
      "inputs": [],
      "name": "InvalidLSP6Target",
      "type": "error"
    },
    {
      "inputs": [
        {
          "internalType": "bytes",
          "name": "payload",
          "type": "bytes"
        }
      ],
      "name": "InvalidPayload",
      "type": "error"
    },
    {
      "inputs": [
        {
          "internalType": "address",
          "name": "signer",
          "type": "address"
        },
        {
          "internalType": "uint256",
          "name": "invalidNonce",
          "type": "uint256"
        },
        {
          "internalType": "bytes",
          "name": "signature",
          "type": "bytes"
        }
      ],
      "name": "InvalidRelayNonce",
      "type": "error"
    },
    {
      "inputs": [
        {
          "internalType": "address",
          "name": "from",
          "type": "address"
        }
      ],
      "name": "InvalidWhitelistedCall",
      "type": "error"
    },
    {
      "inputs": [],
      "name": "KeyManagerCannotBeSetAsExtensionForLSP20Functions",
      "type": "error"
    },
    {
      "inputs": [
        {
          "internalType": "uint256",
          "name": "totalValues",
          "type": "uint256"
        },
        {
          "internalType": "uint256",
          "name": "msgValue",
          "type": "uint256"
        }
      ],
      "name": "LSP6BatchExcessiveValueSent",
      "type": "error"
    },
    {
      "inputs": [
        {
          "internalType": "uint256",
          "name": "totalValues",
          "type": "uint256"
        },
        {
          "internalType": "uint256",
          "name": "msgValue",
          "type": "uint256"
        }
      ],
      "name": "LSP6BatchInsufficientValueSent",
      "type": "error"
    },
    {
      "inputs": [
        {
          "internalType": "address",
          "name": "from",
          "type": "address"
        }
      ],
      "name": "NoCallsAllowed",
      "type": "error"
    },
    {
      "inputs": [
        {
          "internalType": "address",
          "name": "from",
          "type": "address"
        }
      ],
      "name": "NoERC725YDataKeysAllowed",
      "type": "error"
    },
    {
      "inputs": [
        {
          "internalType": "address",
          "name": "from",
          "type": "address"
        }
      ],
      "name": "NoPermissionsSet",
      "type": "error"
    },
    {
      "inputs": [
        {
          "internalType": "address",
          "name": "from",
          "type": "address"
        },
        {
          "internalType": "address",
          "name": "to",
          "type": "address"
        },
        {
          "internalType": "bytes4",
          "name": "selector",
          "type": "bytes4"
        }
      ],
      "name": "NotAllowedCall",
      "type": "error"
    },
    {
      "inputs": [
        {
          "internalType": "address",
          "name": "from",
          "type": "address"
        },
        {
          "internalType": "bytes32",
          "name": "disallowedKey",
          "type": "bytes32"
        }
      ],
      "name": "NotAllowedERC725YDataKey",
      "type": "error"
    },
    {
      "inputs": [
        {
          "internalType": "address",
          "name": "from",
          "type": "address"
        },
        {
          "internalType": "string",
          "name": "permission",
          "type": "string"
        }
      ],
      "name": "NotAuthorised",
      "type": "error"
    },
    {
      "inputs": [
        {
          "internalType": "bytes32",
          "name": "dataKey",
          "type": "bytes32"
        }
      ],
      "name": "NotRecognisedPermissionKey",
      "type": "error"
    },
    {
      "inputs": [],
      "name": "RelayCallBeforeStartTime",
      "type": "error"
    },
    {
      "inputs": [],
      "name": "RelayCallExpired",
      "type": "error"
    },
    {
      "anonymous": false,
      "inputs": [
        {
          "indexed": true,
          "internalType": "address",
          "name": "signer",
          "type": "address"
        },
        {
          "indexed": true,
          "internalType": "uint256",
          "name": "value",
          "type": "uint256"
        },
        {
          "indexed": true,
          "internalType": "bytes4",
          "name": "selector",
          "type": "bytes4"
        }
      ],
      "name": "PermissionsVerified",
      "type": "event"
    },
    {
      "inputs": [
        {
          "internalType": "bytes",
          "name": "payload",
          "type": "bytes"
        }
      ],
      "name": "execute",
      "outputs": [
        {
          "internalType": "bytes",
          "name": "",
          "type": "bytes"
        }
      ],
      "stateMutability": "payable",
      "type": "function"
    },
    {
      "inputs": [
        {
          "internalType": "uint256[]",
          "name": "values",
          "type": "uint256[]"
        },
        {
          "internalType": "bytes[]",
          "name": "payloads",
          "type": "bytes[]"
        }
      ],
      "name": "executeBatch",
      "outputs": [
        {
          "internalType": "bytes[]",
          "name": "",
          "type": "bytes[]"
        }
      ],
      "stateMutability": "payable",
      "type": "function"
    },
    {
      "inputs": [
        {
          "internalType": "bytes",
          "name": "signature",
          "type": "bytes"
        },
        {
          "internalType": "uint256",
          "name": "nonce",
          "type": "uint256"
        },
        {
          "internalType": "uint256",
          "name": "validityTimestamps",
          "type": "uint256"
        },
        {
          "internalType": "bytes",
          "name": "payload",
          "type": "bytes"
        }
      ],
      "name": "executeRelayCall",
      "outputs": [
        {
          "internalType": "bytes",
          "name": "",
          "type": "bytes"
        }
      ],
      "stateMutability": "payable",
      "type": "function"
    },
    {
      "inputs": [
        {
          "internalType": "bytes[]",
          "name": "signatures",
          "type": "bytes[]"
        },
        {
          "internalType": "uint256[]",
          "name": "nonces",
          "type": "uint256[]"
        },
        {
          "internalType": "uint256[]",
          "name": "validityTimestamps",
          "type": "uint256[]"
        },
        {
          "internalType": "uint256[]",
          "name": "values",
          "type": "uint256[]"
        },
        {
          "internalType": "bytes[]",
          "name": "payloads",
          "type": "bytes[]"
        }
      ],
      "name": "executeRelayCallBatch",
      "outputs": [
        {
          "internalType": "bytes[]",
          "name": "",
          "type": "bytes[]"
        }
      ],
      "stateMutability": "payable",
      "type": "function"
    },
    {
      "inputs": [
        {
          "internalType": "address",
          "name": "from",
          "type": "address"
        },
        {
          "internalType": "uint128",
          "name": "channelId",
          "type": "uint128"
        }
      ],
      "name": "getNonce",
      "outputs": [
        {
          "internalType": "uint256",
          "name": "",
          "type": "uint256"
        }
      ],
      "stateMutability": "view",
      "type": "function"
    },
    {
      "inputs": [
        {
          "internalType": "bytes32",
          "name": "dataHash",
          "type": "bytes32"
        },
        {
          "internalType": "bytes",
          "name": "signature",
          "type": "bytes"
        }
      ],
      "name": "isValidSignature",
      "outputs": [
        {
          "internalType": "bytes4",
          "name": "magicValue",
          "type": "bytes4"
        }
      ],
      "stateMutability": "view",
      "type": "function"
    },
    {
      "inputs": [
        {
          "internalType": "address",
          "name": "caller",
          "type": "address"
        },
        {
          "internalType": "uint256",
          "name": "msgValue",
          "type": "uint256"
        },
        {
          "internalType": "bytes",
          "name": "data",
          "type": "bytes"
        }
      ],
      "name": "lsp20VerifyCall",
      "outputs": [
        {
          "internalType": "bytes4",
          "name": "",
          "type": "bytes4"
        }
      ],
      "stateMutability": "nonpayable",
      "type": "function"
    },
    {
      "inputs": [
        {
          "internalType": "bytes32",
          "name": "",
          "type": "bytes32"
        },
        {
          "internalType": "bytes",
          "name": "",
          "type": "bytes"
        }
      ],
      "name": "lsp20VerifyCallResult",
      "outputs": [
        {
          "internalType": "bytes4",
          "name": "",
          "type": "bytes4"
        }
      ],
      "stateMutability": "nonpayable",
      "type": "function"
    },
    {
      "inputs": [
        {
          "internalType": "bytes4",
          "name": "interfaceId",
          "type": "bytes4"
        }
      ],
      "name": "supportsInterface",
      "outputs": [
        {
          "internalType": "bool",
          "name": "",
          "type": "bool"
        }
      ],
      "stateMutability": "view",
      "type": "function"
    },
    {
      "inputs": [],
      "name": "target",
      "outputs": [
        {
          "internalType": "address",
          "name": "",
          "type": "address"
        }
      ],
      "stateMutability": "view",
      "type": "function"
    }
  ],
  "bytecode": "0x60806040523480156200001157600080fd5b5060405162003db638038062003db683398101604081905262000034916200007e565b6001600160a01b0381166200005c5760405163fc85457960e01b815260040160405180910390fd5b600180546001600160a81b0319166001600160a01b03831617905550620000b0565b6000602082840312156200009157600080fd5b81516001600160a01b0381168114620000a957600080fd5b9392505050565b613cf680620000c06000396000f3fe6080604052600436106100b15760003560e01c8063a20856a511610069578063bf0176ff1161004e578063bf0176ff146101c5578063d3fc45d3146101d8578063d4b83992146101f857600080fd5b8063a20856a514610177578063b44581d91461019757600080fd5b80631626ba7e1161009a5780631626ba7e1461010b5780634c8a4e74146101445780639bf04b111461015757600080fd5b806301ffc9a7146100b657806309c5eabe146100eb575b600080fd5b3480156100c257600080fd5b506100d66100d1366004613112565b610220565b60405190151581526020015b60405180910390f35b6100fe6100f936600461317e565b6102f3565b6040516100e29190613210565b34801561011757600080fd5b5061012b6101263660046132e8565b610307565b6040516001600160e01b031990911681526020016100e2565b6100fe61015236600461332f565b610390565b34801561016357600080fd5b5061012b6101723660046133c2565b6103aa565b61018a610185366004613512565b610516565b6040516100e291906135fd565b3480156101a357600080fd5b506101b76101b236600461365f565b610718565b6040519081526020016100e2565b61018a6101d33660046136ad565b61076a565b3480156101e457600080fd5b5061012b6101f33660046132e8565b6108f1565b34801561020457600080fd5b506001546040516001600160a01b0390911681526020016100e2565b60006001600160e01b031982167f6691886700000000000000000000000000000000000000000000000000000000148061026a57506001600160e01b03198216630b135d3f60e11b145b8061029e57506001600160e01b031982167f480c0ec200000000000000000000000000000000000000000000000000000000145b806102d257506001600160e01b031982167f5ac7990800000000000000000000000000000000000000000000000000000000145b806102ed57506301ffc9a760e01b6001600160e01b03198316145b92915050565b6060610300348484610927565b9392505050565b60008060006103168585610a32565b9092509050600081600481111561032f5761032f61370d565b1461034757506001600160e01b031991506102ed9050565b60015461036c906220000090610366906001600160a01b031685610a77565b81161490565b61037e576001600160e01b0319610387565b630b135d3f60e11b5b95945050505050565b60606103a0868686348787610b25565b9695505050505050565b600080631fc8da4360e21b6103bf8486613723565b6001600160e01b03191614806103ee5750639790242160e01b6103e28486613723565b6001600160e01b031916145b156103f7575060015b6001546001600160a01b031633036104b35760006104158288610d06565b905061042387878787610d58565b61042d8486613723565b6001600160e01b03191686886001600160a01b03167fc0a62328f6bf5e3172bb1fcb2019f54b2c523b6a48e3513a2298fbf0150b781e60405160405180910390a481806104775750805b61048857639bf04b0160e01b6104aa565b7f9bf04b00000000000000000000000000000000000000000000000000000000005b9250505061050e565b600154600160a01b900460ff1680156104e9576001546104e99088906104e2906001600160a01b031682610a77565b6080611019565b6104f587878787610d58565b818061047757508061048857639bf04b0160e01b6104aa565b949350505050565b8851606090881415806105295750878614155b806105345750858414155b8061053f5750838214155b15610576576040517fb4d50d2100000000000000000000000000000000000000000000000000000000815260040160405180910390fd5b60008267ffffffffffffffff81111561059157610591613223565b6040519080825280602002602001820160405280156105c457816020015b60608152602001906001900390816105af5790505b5090506000805b848110156106de57348888838181106105e6576105e6613753565b90506020020135836105f8919061377f565b925082111561062857604051630c28c92b60e21b8152600481018390523460248201526044015b60405180910390fd5b6106b98d828151811061063d5761063d613753565b60200260200101518d8d8481811061065757610657613753565b905060200201358c8c8581811061067057610670613753565b905060200201358b8b8681811061068957610689613753565b905060200201358a8a878181106106a2576106a2613753565b90506020028101906106b49190613792565b610b25565b8382815181106106cb576106cb613753565b60209081029190910101526001016105cb565b50348110156107095760405163528c345b60e11b81526004810182905234602482015260440161061f565b509a9950505050505050505050565b6001600160a01b0382166000908152602081815260408083206fffffffffffffffffffffffffffffffff85168452909152812054608083901b6fffffffffffffffffffffffffffffffff191617610300565b60608382146107a5576040517f55a187db00000000000000000000000000000000000000000000000000000000815260040160405180910390fd5b60008267ffffffffffffffff8111156107c0576107c0613223565b6040519080825280602002602001820160405280156107f357816020015b60608152602001906001900390816107de5790505b5090506000805b848110156108bc573488888381811061081557610815613753565b9050602002013583610827919061377f565b925082111561085257604051630c28c92b60e21b81526004810183905234602482015260440161061f565b61089788888381811061086757610867613753565b9050602002013587878481811061088057610880613753565b90506020028101906108929190613792565b610927565b8382815181106108a9576108a9613753565b60209081029190910101526001016107fa565b50348110156108e75760405163528c345b60e11b81526004810182905234602482015260440161061f565b5095945050505050565b6001546000906001600160a01b03163303610918576109186001805460ff60a01b19169055565b5063d3fc45d360e01b92915050565b6060600482101561094f578282604051630d886ef360e21b815260040161061f9291906137d9565b6000631fc8da4360e21b6109638486613723565b6001600160e01b03191614806109925750639790242160e01b6109868486613723565b6001600160e01b031916145b1561099b575060015b60006109a78233610d06565b90506109b533878787610d58565b6109bf8486613723565b6001600160e01b03191686336001600160a01b03167fc0a62328f6bf5e3172bb1fcb2019f54b2c523b6a48e3513a2298fbf0150b781e60405160405180910390a46000610a0d878787611029565b905081158015610a1b575082155b156103a0576103a06001805460ff60a01b19169055565b6000808251604103610a685760208301516040840151606085015160001a610a5c8782858561110a565b94509450505050610a70565b506000905060025b9250929050565b6000806001600160a01b0384166354f6127f610ab77f4b80742de2bf82acb36300000000000000000000000000000000000000000000606087901b6111ce565b6040518263ffffffff1660e01b8152600401610ad591815260200190565b600060405180830381865afa158015610af2573d6000803e3d6000fd5b505050506040513d6000823e601f3d908101601f19168201604052610b1a9190810190613808565b905061050e81613876565b60606004821015610b4d578282604051630d886ef360e21b815260040161061f9291906137d9565b6000610b5d888888888888611237565b6001600160a01b03811660009081526020818152604080832060808c901c84529091529020549091506fffffffffffffffffffffffffffffffff881614610bd6578087896040517fc9bd9eb900000000000000000000000000000000000000000000000000000000815260040161061f9392919061389d565b6001600160a01b03811660009081526020818152604080832060808b901c84529091528120805491610c07836138c5565b9190505550610c158661128f565b6000631fc8da4360e21b610c298587613723565b6001600160e01b0319161480610c585750639790242160e01b610c4c8587613723565b6001600160e01b031916145b15610c61575060015b6000610c6d8284610d06565b9050610c7b83888888610d58565b610c858587613723565b6001600160e01b03191687846001600160a01b03167fc0a62328f6bf5e3172bb1fcb2019f54b2c523b6a48e3513a2298fbf0150b781e60405160405180910390a46000610cd3888888611029565b905081158015610ce1575082155b15610cf857610cf86001805460ff60a01b19169055565b9a9950505050505050505050565b600154600160a01b900460ff168015610d3a57600154610d359083906104e2906001600160a01b031682610a77565b6102ed565b826102ed576001805460ff60a01b1916600160a01b17905592915050565b600154600090610d71906001600160a01b031686610a77565b905080610db5576040517ff292052a0000000000000000000000000000000000000000000000000000000081526001600160a01b038616600482015260240161061f565b6000610dc18385613723565b90507f80dc96f4000000000000000000000000000000000000000000000000000000006001600160e01b0319821601610e55578415610e13576040516316694a7f60e21b815260040160405180910390fd5b600080610e2385600481896138de565b810190610e3091906132e8565b6001549193509150610e4e906001600160a01b031689868585611325565b5050611011565b7f686fdbdf000000000000000000000000000000000000000000000000000000006001600160e01b0319821601610ee0578415610ea5576040516316694a7f60e21b815260040160405180910390fd5b600080610eb585600481896138de565b810190610ec29190613908565b6001549193509150610e4e906001600160a01b03168986858561139a565b7fbb3fd702000000000000000000000000000000000000000000000000000000006001600160e01b0319821601610f5e576000808080610f23876004818b6138de565b810190610f3091906139b7565b60015493975091955093509150610f55906001600160a01b03168b888787878761151d565b50505050611011565b6001600160e01b031981167ff2fde38b000000000000000000000000000000000000000000000000000000001480610fbf57506001600160e01b031981167f79ba509700000000000000000000000000000000000000000000000000000000145b15610fd357610fce86836115f8565b611011565b6040517f2ba8851c0000000000000000000000000000000000000000000000000000000081526001600160e01b03198216600482015260240161061f565b505050505050565b611024838383611631565b505050565b60015460609060009081906001600160a01b0316865a908787604051611050929190613a1a565b600060405180830381858888f193505050503d806000811461108e576040519150601f19603f3d011682016040523d82523d6000602084013e611093565b606091505b509150915060006110da83836040518060400160405280601e81526020017f4c5350363a206661696c656420657865637574696e67207061796c6f61640000815250611664565b905080516000036110eb57806110ff565b808060200190518101906110ff9190613808565b979650505050505050565b6000807f7fffffffffffffffffffffffffffffff5d576e7357a4501ddfe92f46681b20a083111561114157506000905060036111c5565b6040805160008082526020820180845289905260ff881692820192909252606081018690526080810185905260019060a0016020604051602081039080840390855afa158015611195573d6000803e3d6000fd5b5050604051601f1901519150506001600160a01b0381166111be576000600192509250506111c5565b9150600090505b94509492505050565b604080517fffffffffffffffffffff00000000000000000000000000000000000000000000841660208201526000602a82018190526bffffffffffffffffffffffff198416602c8301529182910160405160208183030381529060405290508061050e90613876565b60008060194688888888886040516020016112589796959493929190613a2a565b60408051601f1981840301815291905290506000611276308361167d565b9050611282818a6116b0565b9998505050505050505050565b8060000361129a5750565b608081901c81428211156112d9576040517ede4b8a00000000000000000000000000000000000000000000000000000000815260040160405180910390fd5b806fffffffffffffffffffffffffffffffff16421115611024576040517f5c53a98c00000000000000000000000000000000000000000000000000000000815260040160405180910390fd5b6000611333868585856116d4565b90506203ffff19810161137d5762020000808516036113525750611393565b611360858562040000611019565b610fce85846113786001600160a01b038a1683611a7d565b611b1d565b806113885750611393565b611011858583611019565b5050505050565b80518251146113d5576040517f3bcc897900000000000000000000000000000000000000000000000000000000815260040160405180910390fd5b600080835167ffffffffffffffff8111156113f2576113f2613223565b60405190808252806020026020018201604052801561141b578160200160208202803683370190505b509050600080805b6114618a8989848151811061143a5761143a613753565b602002602001015189858151811061145457611454613753565b60200260200101516116d4565b91506203ffff19820161147757600194506114ba565b811561148857611488898984611019565b600184828151811061149c5761149c613753565b91151560209283029190910190910152826114b6816138c5565b9350505b806001019050865181106114235784156115115762020000808916036114e4575050505050611393565b6114f2898962040000611019565b611511898861150a6001600160a01b038e1683611a7d565b8787611c7d565b50505050505050505050565b306001600160a01b0384160361155f576040517fa431b23600000000000000000000000000000000000000000000000000000000815260040160405180910390fd5b8361157757611572878787868686611ec1565b6115ef565b60018414806115865750600284145b1561159f57811515611599878783611f9d565b506115ef565b600384036115b557611572878787868686612022565b600484036115ef576040517f80d6ebae00000000000000000000000000000000000000000000000000000000815260040160405180910390fd5b50505050505050565b60018082161461162d57600061160e6001612051565b90508281604051631ded6b7360e11b815260040161061f929190613a60565b5050565b808216811461102457600061164582612051565b90508381604051631ded6b7360e11b815260040161061f929190613a60565b60608315611673575081610300565b610300838361244e565b60008282604051602001611692929190613a82565b60405160208183030381529060405280519060200120905092915050565b60008060006116bf8585610a32565b915091506116cc81612478565b509392505050565b60007f20cf245f92495cf19acab2659b39f67a000000000000000000000000000000006fffffffffffffffffffffffffffffffff1984160161172a57600684811614611722868585846125e0565b91505061050e565b7fb47f8bd21d4100000000000000000000000000000000000000000000000000007fffffffffffff00000000000000000000000000000000000000000000000000008416016118a7576006848116146001600160a01b031984167fb47f8bd21d407d534c9d00000000000000000000000000000000000000000000016117f85782516020141580156117bc5750825115155b156117de578383604051631fa4139760e01b815260040161061f929190613ae0565b80156117ee57506000905061050e565b61172286856127ca565b7fb47f8bd21d40c6c59b39000000000000000000000000000000000000000000006001600160a01b0319851601611835576117228685858461285a565b7fb47f8bd21d407993d6ef000000000000000000000000000000000000000000006001600160a01b03198516016118725761172286858584612884565b6040517f0f7d735b0000000000000000000000000000000000000000000000000000000081526004810185905260240161061f565b7f0cfc51aec37c55a4d0b1a65c6255c4bf2fbdf6277f3cc0730c45b828b6db8b478314806118fe57506001600160a01b031983167f0cfc51aec37c55a4d0b100000000000000000000000000000000000000000000145b1561195a5781516014141580156119155750815115155b15611937578282604051631fa4139760e01b815260040161061f929190613ae0565b6060808516036119495750600061050e565b61195385846128ae565b905061050e565b7f311874bf6b2579feef6a000000000000000000000000000000000000000000006001600160a01b0319841601611a7357815160141415801561199d5750815115155b156119bf578282604051631fa4139760e01b815260040161061f929190613ae0565b606083901b6001600160e01b031981167f9bf04b11000000000000000000000000000000000000000000000000000000001480611a0c57506001600160e01b0319811663d3fc45d360e01b145b15611a555730611a1b84613af9565b60601c03611a55576040517f4a9fa8cf00000000000000000000000000000000000000000000000000000000815260040160405180910390fd5b601880861603611a6957506000905061050e565b6117228685612934565b506204000061050e565b60606001600160a01b0383166354f6127f611aba7f4b80742de2bf866c29110000000000000000000000000000000000000000000085851b6111ce565b6040518263ffffffff1660e01b8152600401611ad891815260200190565b600060405180830381865afa158015611af5573d6000803e3d6000fd5b505050506040513d6000823e601f3d908101601f191682016040526103009190810190613808565b8051600003611b4a5760405163ed7fa50960e01b81526001600160a01b038416600482015260240161061f565b6000806000805b8451841015611c5257848481518110611b6c57611b6c613753565b01602001516001600160f81b03191685611b8786600161377f565b81518110611b9757611b97613753565b016020908101516040516001600160f81b031993841692810192909252919091166021820152602201604051602081830303815290604052611bd890613b35565b60f01c9250821580611bea5750602083115b15611c0a578460405163ae6cbd3760e01b815260040161061f9190613b81565b611c15836020613bd3565b611c20906008613be6565b8585016022015160001990911b908116925090508581168203611c465750505050505050565b92820160020192611b51565b60405163557ae07960e01b81526001600160a01b03881660048201526024810187905260440161061f565b8251600003611caa5760405163ed7fa50960e01b81526001600160a01b038616600482015260240161061f565b835160008080805b8751841015611e3b57878481518110611ccd57611ccd613753565b01602001516001600160f81b03191688611ce886600161377f565b81518110611cf857611cf8613753565b016020908101516040516001600160f81b031993841692810192909252919091166021820152602201604051602081830303815290604052611d3990613b35565b60f01c9250821580611d4b5750602083115b15611d6b578760405163ae6cbd3760e01b815260040161061f9190613b81565b611d76836020613bd3565b611d81906008613be6565b8885016022015160001990911b9081169250905060005b85811015611e2e57878181518110611db257611db2613753565b602002602001015115611dc757600101611d98565b82828b8381518110611ddb57611ddb613753565b60200260200101511603611e26576001888281518110611dfd57611dfd613753565b9115156020928302919091019091015260018088019787900301611e2657505050505050611393565b600101611d98565b5092820160020192611cb2565b60005b85811015611eb457878181518110611e5857611e58613753565b6020026020010151611eac578a8a8281518110611e7757611e77613753565b602090810291909101015160405163557ae07960e01b81526001600160a01b039092166004830152602482015260440161061f565b600101611e3e565b5050505050505050505050565b80518215801591610100878116149190159061040080891614908490611ee5575082155b15611ef757611ef78989610200611019565b818015611f02575083155b8015611f0c575080155b15611f1e57611f1e8989610800611019565b81158015611f2a575080155b15611f3c57611f3c8989610800611019565b83158015611f475750805b15611f555750505050611011565b818015611f5f5750835b8015611f685750825b15611f765750505050611011565b808015611f805750825b15611f8e5750505050611011565b6115118a8a60008a8a8a6129ba565b611fab838362010000611019565b61010082811614818015611fbd575080155b1561201c5760408051631ded6b7360e11b81526001600160a01b03861660048201526024810191909152601360448201527f53555045525f5452414e5346455256414c554500000000000000000000000000606482015260840161061f565b50505050565b6110008481161480156120355750611011565b6120428686612000611019565b6115ef878760038787876129ba565b6060600019820161209557505060408051808201909152601181527f5452414e534645524f574e455253484950000000000000000000000000000000602082015290565b60031982016120d757505060408051808201909152600f81527f454449545045524d495353494f4e530000000000000000000000000000000000602082015290565b600119820161211957505060408051808201909152600d81527f414444434f4e54524f4c4c455200000000000000000000000000000000000000602082015290565b600719820161215b57505060408051808201909152600d81527f414444455854454e53494f4e5300000000000000000000000000000000000000602082015290565b600f19820161219d57505060408051808201909152601081527f4348414e4745455854454e53494f4e5300000000000000000000000000000000602082015290565b601f1982016121df57505060408051808201909152601c81527f414444554e4956455253414c524543454956455244454c454741544500000000602082015290565b603f19820161222157505060408051808201909152601f81527f4348414e4745554e4956455253414c524543454956455244454c454741544500602082015290565b607f19820161226357505060408051808201909152600a81527f5245454e5452414e435900000000000000000000000000000000000000000000602082015290565b6203ffff1982016122a757505060408051808201909152600781527f5345544441544100000000000000000000000000000000000000000000000000602082015290565b6107ff1982016122ea57505060408051808201909152600481527f43414c4c00000000000000000000000000000000000000000000000000000000602082015290565b611fff19820161232d57505060408051808201909152600a81527f53544154494343414c4c00000000000000000000000000000000000000000000602082015290565b617fff19820161237057505060408051808201909152600c81527f44454c454741544543414c4c0000000000000000000000000000000000000000602082015290565b61ffff1982016123b357505060408051808201909152600681527f4445504c4f590000000000000000000000000000000000000000000000000000602082015290565b6101ff1982016123f657505060408051808201909152600d81527f5452414e5346455256414c554500000000000000000000000000000000000000602082015290565b621fffff19820161243a57505060408051808201909152600481527f5349474e00000000000000000000000000000000000000000000000000000000602082015290565b505060408051602081019091526000815290565b81511561245e5781518083602001fd5b8060405162461bcd60e51b815260040161061f9190613210565b600081600481111561248c5761248c61370d565b036124945750565b60018160048111156124a8576124a861370d565b036124f55760405162461bcd60e51b815260206004820152601860248201527f45434453413a20696e76616c6964207369676e61747572650000000000000000604482015260640161061f565b60028160048111156125095761250961370d565b036125565760405162461bcd60e51b815260206004820152601f60248201527f45434453413a20696e76616c6964207369676e6174757265206c656e67746800604482015260640161061f565b600381600481111561256a5761256a61370d565b036125dd5760405162461bcd60e51b815260206004820152602260248201527f45434453413a20696e76616c6964207369676e6174757265202773272076616c60448201527f7565000000000000000000000000000000000000000000000000000000000000606482015260840161061f565b50565b60007f20cf245f92495cf19acab2659b39f679e0f76aba35a7394b241ce5a0cc734f1d840161270357825160101415801561261b5750825115155b1561263d578383604051631fa4139760e01b815260040161061f929190613ae0565b811561264b5750600061050e565b600061265684613bfd565b60801c9050856001600160a01b03166354f6127f866040518263ffffffff1660e01b815260040161268991815260200190565b600060405180830381865afa1580156126a6573d6000803e3d6000fd5b505050506040513d6000823e601f3d908101601f191682016040526126ce9190810190613808565b6126d790613bfd565b60801c6fffffffffffffffffffffffffffffffff8216116126f9576004611722565b600291505061050e565b82511580159061271557508251601414155b15612737578383604051631fa4139760e01b815260040161061f929190613ae0565b81156127455750600061050e565b6040516354f6127f60e01b8152600481018590526001600160a01b038616906354f6127f90602401600060405180830381865afa15801561278a573d6000803e3d6000fd5b505050506040513d6000823e601f3d908101601f191682016040526127b29190810190613808565b51156127bf576004610387565b600295945050505050565b6040516354f6127f60e01b81526004810182905260009081906001600160a01b038516906354f6127f90602401600060405180830381865afa158015612814573d6000803e3d6000fd5b505050506040513d6000823e601f3d908101601f1916820160405261283c9190810190613808565b61284590613876565b14612851576004610300565b50600292915050565b600061286583612bae565b612737578260405163187e77ab60e01b815260040161061f9190613210565b600061288f83612ca4565b612737578260405163ae6cbd3760e01b815260040161061f9190613c3a565b6040516354f6127f60e01b8152600481018290526000906001600160a01b038416906354f6127f90602401600060405180830381865afa1580156128f6573d6000803e3d6000fd5b505050506040513d6000823e601f3d908101601f1916820160405261291e9190810190613808565b511561292b576040610300565b50602092915050565b6040516354f6127f60e01b8152600481018290526000906001600160a01b038416906354f6127f90602401600060405180830381865afa15801561297c573d6000803e3d6000fd5b505050506040513d6000823e601f3d908101601f191682016040526129a49190810190613808565b51156129b1576010610300565b50600892915050565b60006129cf6001600160a01b03881687612d8a565b90508051600003612a17576040517f6cb605870000000000000000000000000000000000000000000000000000000081526001600160a01b038716600482015260240161061f565b815180159060009060041115612a2e576000612a37565b612a3784613c8c565b90506000612a46888785612dc7565b905060005b8451811015612b58578451612a6182602261377f565b1115612a82578460405163187e77ab60e01b815260040161061f9190613210565b6000612a9a86612a9384600261377f565b6020612e77565b905063ffffffff196020612aad83613876565b63ffffffff19911b1603612af8576040517f6fd203c50000000000000000000000000000000000000000000000000000000081526001600160a01b038c16600482015260240161061f565b612b028184612f9f565b8015612b135750612b13818a612fc6565b8015612b245750612b24818a613009565b8015612b355750612b358185613041565b15612b4557505050505050611011565b50612b5160228261377f565b9050612a4b565b506040517f45147bce0000000000000000000000000000000000000000000000000000000081526001600160a01b03808b166004830152881660248201526001600160e01b03198316604482015260640161061f565b6000805b8251811015612c8a578251612bc882600161377f565b10612bd65750600092915050565b6000838281518110612bea57612bea613753565b01602001516001600160f81b03191684612c0584600161377f565b81518110612c1557612c15613753565b016020908101516040516001600160f81b031993841692810192909252919091166021820152602201604051602081830303815290604052612c5690613b35565b60f01c905060208114612c6d575060009392505050565b612c7881600261377f565b612c82908361377f565b915050612bb2565b82518103612c9b5750600192915050565b50600092915050565b6000805b8251811015612c8a578251612cbe82600161377f565b10612ccc5750600092915050565b6000838281518110612ce057612ce0613753565b01602001516001600160f81b03191684612cfb84600161377f565b81518110612d0b57612d0b613753565b016020908101516040516001600160f81b031993841692810192909252919091166021820152602201604051602081830303815290604052612d4c90613b35565b60f01c9050801580612d5e5750602081115b15612d6d575060009392505050565b612d7881600261377f565b612d82908361377f565b915050612ca8565b60606001600160a01b0383166354f6127f611aba7f4b80742de2bf393a64c70000000000000000000000000000000000000000000085851b6111ce565b60008215612def577c0100000000000000000000000000000000000000000000000000000000175b816103005783612e1d577c020000000000000000000000000000000000000000000000000000000017610300565b60038403612e49577c040000000000000000000000000000000000000000000000000000000017610300565b60048403610300577c0800000000000000000000000000000000000000000000000000000000179392505050565b606081612e8581601f61377f565b1015612ed35760405162461bcd60e51b815260206004820152600e60248201527f736c6963655f6f766572666c6f77000000000000000000000000000000000000604482015260640161061f565b612edd828461377f565b84511015612f2d5760405162461bcd60e51b815260206004820152601160248201527f736c6963655f6f75744f66426f756e6473000000000000000000000000000000604482015260640161061f565b606082158015612f4c5760405191506000825260208201604052612f96565b6040519150601f8416801560200281840101858101878315602002848b0101015b81831015612f85578051835260209283019201612f6d565b5050858452601f01601f1916604052505b50949350505050565b600080612fab84613c8c565b83166001600160e01b03199081169084161491505092915050565b6000806020612fd485613876565b901b60601c90506001600160a01b0381148061050e5750806001600160a01b0316836001600160a01b03161491505092915050565b60008060c061301785613876565b901b90506001600160e01b0319808216148061050e575061050e6001600160a01b0384168261308d565b60008060e061304f85613876565b901b90506001600160e01b0319838116151590808316148061038757508080156103875750506001600160e01b031990811692169190911492915050565b604080516001600160e01b03198316602480830191909152825180830390910181526044909101909152602080820180516001600160e01b03166301ffc9a760e01b178152825160009392849283928392918391908a617530fa92503d915060005190508280156130ff575060208210155b80156110ff575015159695505050505050565b60006020828403121561312457600080fd5b81356001600160e01b03198116811461030057600080fd5b60008083601f84011261314e57600080fd5b50813567ffffffffffffffff81111561316657600080fd5b602083019150836020828501011115610a7057600080fd5b6000806020838503121561319157600080fd5b823567ffffffffffffffff8111156131a857600080fd5b6131b48582860161313c565b90969095509350505050565b60005b838110156131db5781810151838201526020016131c3565b50506000910152565b600081518084526131fc8160208601602086016131c0565b601f01601f19169290920160200192915050565b60208152600061030060208301846131e4565b634e487b7160e01b600052604160045260246000fd5b604051601f8201601f1916810167ffffffffffffffff8111828210171561326257613262613223565b604052919050565b600067ffffffffffffffff82111561328457613284613223565b50601f01601f191660200190565b600082601f8301126132a357600080fd5b81356132b66132b18261326a565b613239565b8181528460208386010111156132cb57600080fd5b816020850160208301376000918101602001919091529392505050565b600080604083850312156132fb57600080fd5b82359150602083013567ffffffffffffffff81111561331957600080fd5b61332585828601613292565b9150509250929050565b60008060008060006080868803121561334757600080fd5b853567ffffffffffffffff8082111561335f57600080fd5b61336b89838a01613292565b96506020880135955060408801359450606088013591508082111561338f57600080fd5b5061339c8882890161313c565b969995985093965092949392505050565b6001600160a01b03811681146125dd57600080fd5b600080600080606085870312156133d857600080fd5b84356133e3816133ad565b935060208501359250604085013567ffffffffffffffff81111561340657600080fd5b6134128782880161313c565b95989497509550505050565b600067ffffffffffffffff82111561343857613438613223565b5060051b60200190565b600082601f83011261345357600080fd5b813560206134636132b18361341e565b82815260059290921b8401810191818101908684111561348257600080fd5b8286015b848110156134c257803567ffffffffffffffff8111156134a65760008081fd5b6134b48986838b0101613292565b845250918301918301613486565b509695505050505050565b60008083601f8401126134df57600080fd5b50813567ffffffffffffffff8111156134f757600080fd5b6020830191508360208260051b8501011115610a7057600080fd5b600080600080600080600080600060a08a8c03121561353057600080fd5b893567ffffffffffffffff8082111561354857600080fd5b6135548d838e01613442565b9a5060208c013591508082111561356a57600080fd5b6135768d838e016134cd565b909a50985060408c013591508082111561358f57600080fd5b61359b8d838e016134cd565b909850965060608c01359150808211156135b457600080fd5b6135c08d838e016134cd565b909650945060808c01359150808211156135d957600080fd5b506135e68c828d016134cd565b915080935050809150509295985092959850929598565b6000602080830181845280855180835260408601915060408160051b870101925083870160005b8281101561365257603f198886030184526136408583516131e4565b94509285019290850190600101613624565b5092979650505050505050565b6000806040838503121561367257600080fd5b823561367d816133ad565b915060208301356fffffffffffffffffffffffffffffffff811681146136a257600080fd5b809150509250929050565b600080600080604085870312156136c357600080fd5b843567ffffffffffffffff808211156136db57600080fd5b6136e7888389016134cd565b9096509450602087013591508082111561370057600080fd5b50613412878288016134cd565b634e487b7160e01b600052602160045260246000fd5b6001600160e01b0319813581811691600485101561374b5780818660040360031b1b83161692505b505092915050565b634e487b7160e01b600052603260045260246000fd5b634e487b7160e01b600052601160045260246000fd5b808201808211156102ed576102ed613769565b6000808335601e198436030181126137a957600080fd5b83018035915067ffffffffffffffff8211156137c457600080fd5b602001915036819003821315610a7057600080fd5b60208152816020820152818360408301376000818301604090810191909152601f909201601f19160101919050565b60006020828403121561381a57600080fd5b815167ffffffffffffffff81111561383157600080fd5b8201601f8101841361384257600080fd5b80516138506132b18261326a565b81815285602083850101111561386557600080fd5b6103878260208301602086016131c0565b80516020808301519190811015613897576000198160200360031b1b821691505b50919050565b6001600160a01b038416815282602082015260606040820152600061038760608301846131e4565b6000600182016138d7576138d7613769565b5060010190565b600080858511156138ee57600080fd5b838611156138fb57600080fd5b5050820193919092039150565b6000806040838503121561391b57600080fd5b823567ffffffffffffffff8082111561393357600080fd5b818501915085601f83011261394757600080fd5b813560206139576132b18361341e565b82815260059290921b8401810191818101908984111561397657600080fd5b948201945b838610156139945785358252948201949082019061397b565b965050860135925050808211156139aa57600080fd5b5061332585828601613442565b600080600080608085870312156139cd57600080fd5b8435935060208501356139df816133ad565b925060408501359150606085013567ffffffffffffffff811115613a0257600080fd5b613a0e87828801613292565b91505092959194509250565b8183823760009101908152919050565b878152866020820152856040820152846060820152836080820152818360a08301376000910160a0019081529695505050505050565b6001600160a01b038316815260406020820152600061050e60408301846131e4565b7f190000000000000000000000000000000000000000000000000000000000000081526bffffffffffffffffffffffff198360601b16600282015260008251613ad28160168501602087016131c0565b919091016016019392505050565b82815260406020820152600061050e60408301846131e4565b805160208201516bffffffffffffffffffffffff198082169291906014831015613b2d5780818460140360031b1b83161693505b505050919050565b6000815160208301517fffff00000000000000000000000000000000000000000000000000000000000080821693506002831015613b2d5760029290920360031b82901b161692915050565b604081526000613b9460408301846131e4565b8281036020840152601c81527f636f756c646e2774204445434f44452066726f6d2073746f726167650000000060208201526040810191505092915050565b818103818111156102ed576102ed613769565b80820281158282048414176102ed576102ed613769565b6000815160208301516fffffffffffffffffffffffffffffffff1980821693506010831015613b2d5760109290920360031b82901b161692915050565b604081526000613c4d60408301846131e4565b8281036020840152602081527f636f756c646e27742056414c49444154452074686520646174612076616c756560208201526040810191505092915050565b6000815160208301516001600160e01b031980821693506004831015613b2d5760049290920360031b82901b16169291505056fea2646970667358221220b88d0c9c44b9023336857b439f5be3e67284e1578ff2a8d7736595fb221c1de964736f6c63430008110033",
  "linkReferences": {},
  "deployedLinkReferences": {}
}