{
  "_format": "hh-sol-artifact-1",
  "contractName": "UniversalProfile",
  "sourceName": "contracts/UniversalProfile.sol",
  "abi": [
    {
      "inputs": [
        {
          "internalType": "address",
          "name": "initialOwner",
          "type": "address"
        }
      ],
      "stateMutability": "payable",
      "type": "constructor"
    },
    {
      "inputs": [],
      "name": "CannotTransferOwnershipToSelf",
      "type": "error"
    },
    {
      "inputs": [],
      "name": "ERC725X_ContractDeploymentFailed",
      "type": "error"
    },
    {
      "inputs": [],
      "name": "ERC725X_CreateOperationsRequireEmptyRecipientAddress",
      "type": "error"
    },
    {
      "inputs": [],
      "name": "ERC725X_ExecuteParametersEmptyArray",
      "type": "error"
    },
    {
      "inputs": [],
      "name": "ERC725X_ExecuteParametersLengthMismatch",
      "type": "error"
    },
    {
      "inputs": [
        {
          "internalType": "uint256",
          "name": "balance",
          "type": "uint256"
        },
        {
          "internalType": "uint256",
          "name": "value",
          "type": "uint256"
        }
      ],
      "name": "ERC725X_InsufficientBalance",
      "type": "error"
    },
    {
      "inputs": [],
      "name": "ERC725X_MsgValueDisallowedInDelegateCall",
      "type": "error"
    },
    {
      "inputs": [],
      "name": "ERC725X_MsgValueDisallowedInStaticCall",
      "type": "error"
    },
    {
      "inputs": [],
      "name": "ERC725X_NoContractBytecodeProvided",
      "type": "error"
    },
    {
      "inputs": [
        {
          "internalType": "uint256",
          "name": "operationTypeProvided",
          "type": "uint256"
        }
      ],
      "name": "ERC725X_UnknownOperationType",
      "type": "error"
    },
    {
      "inputs": [],
      "name": "ERC725Y_DataKeysValuesLengthMismatch",
      "type": "error"
    },
    {
      "inputs": [],
      "name": "LSP14MustAcceptOwnershipInSeparateTransaction",
      "type": "error"
    },
    {
      "inputs": [
        {
          "internalType": "bool",
          "name": "postCall",
          "type": "bool"
        }
      ],
      "name": "LSP20CallingVerifierFailed",
      "type": "error"
    },
    {
      "inputs": [
        {
          "internalType": "bool",
          "name": "postCall",
          "type": "bool"
        },
        {
          "internalType": "bytes",
          "name": "returnedData",
          "type": "bytes"
        }
      ],
      "name": "LSP20InvalidMagicValue",
      "type": "error"
    },
    {
      "inputs": [
        {
          "internalType": "bytes4",
          "name": "functionSelector",
          "type": "bytes4"
        }
      ],
      "name": "NoExtensionFoundForFunctionSelector",
      "type": "error"
    },
    {
      "inputs": [
        {
          "internalType": "uint256",
          "name": "renounceOwnershipStart",
          "type": "uint256"
        },
        {
          "internalType": "uint256",
          "name": "renounceOwnershipEnd",
          "type": "uint256"
        }
      ],
      "name": "NotInRenounceOwnershipInterval",
      "type": "error"
    },
    {
      "anonymous": false,
      "inputs": [
        {
          "indexed": true,
          "internalType": "uint256",
          "name": "operationType",
          "type": "uint256"
        },
        {
          "indexed": true,
          "internalType": "address",
          "name": "contractAddress",
          "type": "address"
        },
        {
          "indexed": true,
          "internalType": "uint256",
          "name": "value",
          "type": "uint256"
        },
        {
          "indexed": false,
          "internalType": "bytes32",
          "name": "salt",
          "type": "bytes32"
        }
      ],
      "name": "ContractCreated",
      "type": "event"
    },
    {
      "anonymous": false,
      "inputs": [
        {
          "indexed": true,
          "internalType": "bytes32",
          "name": "dataKey",
          "type": "bytes32"
        },
        {
          "indexed": false,
          "internalType": "bytes",
          "name": "dataValue",
          "type": "bytes"
        }
      ],
      "name": "DataChanged",
      "type": "event"
    },
    {
      "anonymous": false,
      "inputs": [
        {
          "indexed": true,
          "internalType": "uint256",
          "name": "operationType",
          "type": "uint256"
        },
        {
          "indexed": true,
          "internalType": "address",
          "name": "target",
          "type": "address"
        },
        {
          "indexed": true,
          "internalType": "uint256",
          "name": "value",
          "type": "uint256"
        },
        {
          "indexed": false,
          "internalType": "bytes4",
          "name": "selector",
          "type": "bytes4"
        }
      ],
      "name": "Executed",
      "type": "event"
    },
    {
      "anonymous": false,
      "inputs": [],
      "name": "OwnershipRenounced",
      "type": "event"
    },
    {
      "anonymous": false,
      "inputs": [
        {
          "indexed": true,
          "internalType": "address",
          "name": "previousOwner",
          "type": "address"
        },
        {
          "indexed": true,
          "internalType": "address",
          "name": "newOwner",
          "type": "address"
        }
      ],
      "name": "OwnershipTransferStarted",
      "type": "event"
    },
    {
      "anonymous": false,
      "inputs": [
        {
          "indexed": true,
          "internalType": "address",
          "name": "previousOwner",
          "type": "address"
        },
        {
          "indexed": true,
          "internalType": "address",
          "name": "newOwner",
          "type": "address"
        }
      ],
      "name": "OwnershipTransferred",
      "type": "event"
    },
    {
      "anonymous": false,
      "inputs": [],
      "name": "RenounceOwnershipStarted",
      "type": "event"
    },
    {
      "anonymous": false,
      "inputs": [
        {
          "indexed": true,
          "internalType": "address",
          "name": "from",
          "type": "address"
        },
        {
          "indexed": true,
          "internalType": "uint256",
          "name": "value",
          "type": "uint256"
        },
        {
          "indexed": true,
          "internalType": "bytes32",
          "name": "typeId",
          "type": "bytes32"
        },
        {
          "indexed": false,
          "internalType": "bytes",
          "name": "receivedData",
          "type": "bytes"
        },
        {
          "indexed": false,
          "internalType": "bytes",
          "name": "returnedValue",
          "type": "bytes"
        }
      ],
      "name": "UniversalReceiver",
      "type": "event"
    },
    {
      "anonymous": false,
      "inputs": [
        {
          "indexed": true,
          "internalType": "address",
          "name": "sender",
          "type": "address"
        },
        {
          "indexed": true,
          "internalType": "uint256",
          "name": "value",
          "type": "uint256"
        }
      ],
      "name": "ValueReceived",
      "type": "event"
    },
    {
      "stateMutability": "payable",
      "type": "fallback"
    },
    {
      "inputs": [],
      "name": "RENOUNCE_OWNERSHIP_CONFIRMATION_DELAY",
      "outputs": [
        {
          "internalType": "uint256",
          "name": "",
          "type": "uint256"
        }
      ],
      "stateMutability": "view",
      "type": "function"
    },
    {
      "inputs": [],
      "name": "RENOUNCE_OWNERSHIP_CONFIRMATION_PERIOD",
      "outputs": [
        {
          "internalType": "uint256",
          "name": "",
          "type": "uint256"
        }
      ],
      "stateMutability": "view",
      "type": "function"
    },
    {
      "inputs": [],
      "name": "acceptOwnership",
      "outputs": [],
      "stateMutability": "nonpayable",
      "type": "function"
    },
    {
      "inputs": [
        {
          "internalType": "bytes[]",
          "name": "data",
          "type": "bytes[]"
        }
      ],
      "name": "batchCalls",
      "outputs": [
        {
          "internalType": "bytes[]",
          "name": "results",
          "type": "bytes[]"
        }
      ],
      "stateMutability": "nonpayable",
      "type": "function"
    },
    {
      "inputs": [
        {
          "internalType": "uint256",
          "name": "operationType",
          "type": "uint256"
        },
        {
          "internalType": "address",
          "name": "target",
          "type": "address"
        },
        {
          "internalType": "uint256",
          "name": "value",
          "type": "uint256"
        },
        {
          "internalType": "bytes",
          "name": "data",
          "type": "bytes"
        }
      ],
      "name": "execute",
      "outputs": [
        {
          "internalType": "bytes",
          "name": "",
          "type": "bytes"
        }
      ],
      "stateMutability": "payable",
      "type": "function"
    },
    {
      "inputs": [
        {
          "internalType": "uint256[]",
          "name": "operationsType",
          "type": "uint256[]"
        },
        {
          "internalType": "address[]",
          "name": "targets",
          "type": "address[]"
        },
        {
          "internalType": "uint256[]",
          "name": "values",
          "type": "uint256[]"
        },
        {
          "internalType": "bytes[]",
          "name": "datas",
          "type": "bytes[]"
        }
      ],
      "name": "executeBatch",
      "outputs": [
        {
          "internalType": "bytes[]",
          "name": "",
          "type": "bytes[]"
        }
      ],
      "stateMutability": "payable",
      "type": "function"
    },
    {
      "inputs": [
        {
          "internalType": "bytes32",
          "name": "dataKey",
          "type": "bytes32"
        }
      ],
      "name": "getData",
      "outputs": [
        {
          "internalType": "bytes",
          "name": "dataValue",
          "type": "bytes"
        }
      ],
      "stateMutability": "view",
      "type": "function"
    },
    {
      "inputs": [
        {
          "internalType": "bytes32[]",
          "name": "dataKeys",
          "type": "bytes32[]"
        }
      ],
      "name": "getDataBatch",
      "outputs": [
        {
          "internalType": "bytes[]",
          "name": "dataValues",
          "type": "bytes[]"
        }
      ],
      "stateMutability": "view",
      "type": "function"
    },
    {
      "inputs": [
        {
          "internalType": "bytes32",
          "name": "dataHash",
          "type": "bytes32"
        },
        {
          "internalType": "bytes",
          "name": "signature",
          "type": "bytes"
        }
      ],
      "name": "isValidSignature",
      "outputs": [
        {
          "internalType": "bytes4",
          "name": "magicValue",
          "type": "bytes4"
        }
      ],
      "stateMutability": "view",
      "type": "function"
    },
    {
      "inputs": [],
      "name": "owner",
      "outputs": [
        {
          "internalType": "address",
          "name": "",
          "type": "address"
        }
      ],
      "stateMutability": "view",
      "type": "function"
    },
    {
      "inputs": [],
      "name": "pendingOwner",
      "outputs": [
        {
          "internalType": "address",
          "name": "",
          "type": "address"
        }
      ],
      "stateMutability": "view",
      "type": "function"
    },
    {
      "inputs": [],
      "name": "renounceOwnership",
      "outputs": [],
      "stateMutability": "nonpayable",
      "type": "function"
    },
    {
      "inputs": [
        {
          "internalType": "bytes32",
          "name": "dataKey",
          "type": "bytes32"
        },
        {
          "internalType": "bytes",
          "name": "dataValue",
          "type": "bytes"
        }
      ],
      "name": "setData",
      "outputs": [],
      "stateMutability": "payable",
      "type": "function"
    },
    {
      "inputs": [
        {
          "internalType": "bytes32[]",
          "name": "dataKeys",
          "type": "bytes32[]"
        },
        {
          "internalType": "bytes[]",
          "name": "dataValues",
          "type": "bytes[]"
        }
      ],
      "name": "setDataBatch",
      "outputs": [],
      "stateMutability": "payable",
      "type": "function"
    },
    {
      "inputs": [
        {
          "internalType": "bytes4",
          "name": "interfaceId",
          "type": "bytes4"
        }
      ],
      "name": "supportsInterface",
      "outputs": [
        {
          "internalType": "bool",
          "name": "",
          "type": "bool"
        }
      ],
      "stateMutability": "view",
      "type": "function"
    },
    {
      "inputs": [
        {
          "internalType": "address",
          "name": "pendingNewOwner",
          "type": "address"
        }
      ],
      "name": "transferOwnership",
      "outputs": [],
      "stateMutability": "nonpayable",
      "type": "function"
    },
    {
      "inputs": [
        {
          "internalType": "bytes32",
          "name": "typeId",
          "type": "bytes32"
        },
        {
          "internalType": "bytes",
          "name": "receivedData",
          "type": "bytes"
        }
      ],
      "name": "universalReceiver",
      "outputs": [
        {
          "internalType": "bytes",
          "name": "returnedValues",
          "type": "bytes"
        }
      ],
      "stateMutability": "payable",
      "type": "function"
    },
    {
      "stateMutability": "payable",
      "type": "receive"
    }
  ],
  "bytecode": "0x6080604052604051620038d0380380620038d08339810160408190526200002691620002cd565b8034156200005c57604051349033907f7e71433ddf847725166244795048ecf3e3f9f35628254ecbf73605666423349390600090a35b6200007281620000c260201b620011be1760201c565b506040805180820190915260048152635ef83ad960e01b6020820152620000bb907feafec4d89fa9619884b600005ef83ad9559033e6e941db7d7c495acdce6163479062000129565b50620004e8565b6000546001600160a01b038281169116146200012657600080546001600160a01b038381166001600160a01b0319831681178455604051919092169283917f8be0079c531659141344cd1fd0a4f28419497f9722a3daafe3b4186f6b6457e09190a3505b50565b6000828152600160205260409020620001438282620003a4565b50817fece574603820d07bc9b91f2a932baadf4628aabcb8afba49776529c14a6104b26101008351111562000193576200018d836000610100620001b060201b620012231760201c565b62000195565b825b604051620001a4919062000470565b60405180910390a25050565b606081620001c081601f620004c0565b1015620002055760405162461bcd60e51b815260206004820152600e60248201526d736c6963655f6f766572666c6f7760901b60448201526064015b60405180910390fd5b620002118284620004c0565b84511015620002575760405162461bcd60e51b8152602060048201526011602482015270736c6963655f6f75744f66426f756e647360781b6044820152606401620001fc565b606082158015620002785760405191506000825260208201604052620002c4565b6040519150601f8416801560200281840101858101878315602002848b0101015b81831015620002b357805183526020928301920162000299565b5050858452601f01601f1916604052505b50949350505050565b600060208284031215620002e057600080fd5b81516001600160a01b0381168114620002f857600080fd5b9392505050565b634e487b7160e01b600052604160045260246000fd5b600181811c908216806200032a57607f821691505b6020821081036200034b57634e487b7160e01b600052602260045260246000fd5b50919050565b601f8211156200039f57600081815260208120601f850160051c810160208610156200037a5750805b601f850160051c820191505b818110156200039b5782815560010162000386565b5050505b505050565b81516001600160401b03811115620003c057620003c0620002ff565b620003d881620003d1845462000315565b8462000351565b602080601f831160018114620004105760008415620003f75750858301515b600019600386901b1c1916600185901b1785556200039b565b600085815260208120601f198616915b82811015620004415788860151825594840194600190910190840162000420565b5085821015620004605787850151600019600388901b60f8161c191681555b5050505050600190811b01905550565b600060208083528351808285015260005b818110156200049f5785810183015185820160400152820162000481565b506000604082860101526040601f19601f8301168501019250505092915050565b80820180821115620004e257634e487b7160e01b600052601160045260246000fd5b92915050565b6133d880620004f86000396000f3fe6080604052600436106101125760003560e01c8063715018a6116100a55780639790242111610074578063e30c397811610059578063e30c397814610382578063ead3fbdf146101bc578063f2fde38b146103a05761014d565b8063979024211461034f578063dedff9c6146103625761014d565b8063715018a6146102e057806379ba5097146102f55780637f23690c1461030a5780638da5cb5b1461031d5761014d565b806344c028fe116100e157806344c028fe1461026d57806354f6127f1461028d5780636963d438146102ad5780636bb56a14146102cd5761014d565b806301bfba61146101bc57806301ffc9a7146101e45780631626ba7e14610214578063318584521461024d5761014d565b3661014d57341561014b57604051349033907f7e71433ddf847725166244795048ecf3e3f9f35628254ecbf73605666423349390600090a35b005b6000366060341561018657604051349033907f7e71433ddf847725166244795048ecf3e3f9f35628254ecbf73605666423349390600090a35b60043610156101a457506040805160208101909152600081526101b1565b6101ae83836103c0565b90505b915050805190602001f35b3480156101c857600080fd5b506101d160c881565b6040519081526020015b60405180910390f35b3480156101f057600080fd5b506102046101ff36600461289b565b61050e565b60405190151581526020016101db565b34801561022057600080fd5b5061023461022f36600461297d565b6105f9565b6040516001600160e01b031990911681526020016101db565b61026061025b366004612aea565b6107ab565b6040516101db9190612c42565b61028061027b366004612ca4565b610862565b6040516101db9190612cf9565b34801561029957600080fd5b506102806102a8366004612d0c565b6108f0565b3480156102b957600080fd5b506102606102c8366004612d25565b6108fb565b6102806102db366004612d9a565b610a57565b3480156102ec57600080fd5b5061014b610c06565b34801561030157600080fd5b5061014b610cc9565b61014b61031836600461297d565b610da2565b34801561032957600080fd5b506000546001600160a01b03165b6040516001600160a01b0390911681526020016101db565b61014b61035d366004612e16565b610e30565b34801561036e57600080fd5b5061026061037d366004612e70565b610f73565b34801561038e57600080fd5b506003546001600160a01b0316610337565b3480156103ac57600080fd5b5061014b6103bb366004612ea5565b61101e565b606060006103d96000356001600160e01b03191661134d565b90506000356001600160e01b0319161580156103fc57506001600160a01b038116155b15610417575050604080516020810190915260008152610508565b6001600160a01b03811661046a576040517fbb370b2b0000000000000000000000000000000000000000000000000000000081526001600160e01b03196000351660048201526024015b60405180910390fd5b600080826001600160a01b03168686333460405160200161048e9493929190612ec0565b60408051601f19818403018152908290526104a891612ef0565b6000604051808303816000865af19150503d80600081146104e5576040519150601f19603f3d011682016040523d82523d6000602084013e6104ea565b606091505b509150915081156104ff579250610508915050565b80518060208301fd5b92915050565b60006001600160e01b03198216630b135d3f60e11b148061055857506001600160e01b031982167f24871b3d00000000000000000000000000000000000000000000000000000000145b8061057357506001600160e01b03198216631aed5a8560e21b145b806105a757506001600160e01b031982167f94be599900000000000000000000000000000000000000000000000000000000145b806105db57506001600160e01b031982167f1a0eb6a500000000000000000000000000000000000000000000000000000000145b806105ea57506105ea826113a5565b806105085750610508826113e3565b60008061060e6000546001600160a01b031690565b90506001600160a01b0381163b1561072b57600080826001600160a01b0316631626ba7e60e01b8787604051602401610648929190612f0c565b60408051601f198184030181529181526020820180516001600160e01b03166001600160e01b03199094169390931790925290516106869190612ef0565b600060405180830381855afa9150503d80600081146106c1576040519150601f19603f3d011682016040523d82523d6000602084013e6106c6565b606091505b509150915060008280156106db575081516020145b801561070257508151630b135d3f60e11b906107009084016020908101908501612f25565b145b905080610717576001600160e01b0319610720565b630b135d3f60e11b5b945050505050610508565b6000806107388686611419565b9092509050600081600481111561075157610751612f3e565b1461076a57506001600160e01b03199250610508915050565b826001600160a01b0316826001600160a01b031614610791576001600160e01b031961079a565b630b135d3f60e11b5b9350505050610508565b5092915050565b606034156107e157604051349033907f7e71433ddf847725166244795048ecf3e3f9f35628254ecbf73605666423349390600090a35b6000546001600160a01b031633819003610809576108018686868661145e565b91505061085a565b6000610814826115ee565b905060006108248888888861145e565b905081156108555761085583826040516020016108419190612c42565b604051602081830303815290604052611790565b925050505b949350505050565b6060341561089857604051349033907f7e71433ddf847725166244795048ecf3e3f9f35628254ecbf73605666423349390600090a35b6000546001600160a01b0316338190036108b857610801868686866118da565b60006108c3826115ee565b905060006108d3888888886118da565b905081156108555761085583826040516020016108419190612cf9565b606061050882611a30565b60608167ffffffffffffffff811115610916576109166128b8565b60405190808252806020026020018201604052801561094957816020015b60608152602001906001900390816109345790505b50905060005b828110156107a4576000803086868581811061096d5761096d612f54565b905060200281019061097f9190612f6a565b60405161098d929190612fb1565b600060405180830381855af49150503d80600081146109c8576040519150601f19603f3d011682016040523d82523d6000602084013e6109cd565b606091505b509150915081610a2f578051156109e75780518082602001fd5b60405162461bcd60e51b815260206004820152601960248201527f4c5350303a20626174636843616c6c73207265766572746564000000000000006044820152606401610461565b80848481518110610a4257610a42612f54565b6020908102919091010152505060010161094f565b60603415610a8d57604051349033907f7e71433ddf847725166244795048ecf3e3f9f35628254ecbf73605666423349390600090a35b6000610ab87f0cfc51aec37c55a4d0b1a65c6255c4bf2fbdf6277f3cc0730c45b828b6db8b47611a30565b905060606014825110610b07576000610ad083612fc1565b60601c9050610ae681631aed5a8560e21b611ad2565b15610b0557610b026001600160a01b0382168888883334611b5b565b91505b505b6000610b337f0cfc51aec37c55a4d0b10000000000000000000000000000000000000000000088611ca3565b90506000610b4082611a30565b905060606014825110610b8f576000610b5883612fc1565b60601c9050610b6e81631aed5a8560e21b611ad2565b15610b8d57610b8a6001600160a01b0382168b8b8b3334611b5b565b91505b505b8381604051602001610ba2929190612ffd565b60405160208183030381529060405295508834336001600160a01b03167f9c3ba68eb5742b8e3961aea0afc7371a71bf433c8a67a831803b64c064a178c28b8b8b604051610bf29392919061304b565b60405180910390a450505050509392505050565b6000546001600160a01b031633819003610c2557610c22611d0c565b50565b6000610c30826115ee565b90506000610c466000546001600160a01b031690565b9050610c50611d0c565b6000546001600160a01b0316610ca557604080516020810190915260008152610ca5906001600160a01b038316907fa4e59c931d14f7c8a7a35027f92ee40b5f2886b9fdcdb78f30bc5ecce5a2f81490611e18565b8115610cc457610cc48360405180602001604052806000815250611790565b505050565b600354600160a01b900460ff1615610d0d576040517f5758dd0700000000000000000000000000000000000000000000000000000000815260040160405180910390fd5b6000546001600160a01b0316610d21611ea3565b604080516020810190915260008152610d66906001600160a01b038316907fa4e59c931d14f7c8a7a35027f92ee40b5f2886b9fdcdb78f30bc5ecce5a2f81490611e18565b604080516020810190915260008152610c229033907fceca317f109c43507871523e82dc2a3cc64dfa18f12da0b6db14f6e23f99553890611e18565b3415610dd657604051349033907f7e71433ddf847725166244795048ecf3e3f9f35628254ecbf73605666423349390600090a35b6000546001600160a01b031633819003610df457610cc48383611f3e565b6000610dff826115ee565b9050610e0b8484611f3e565b8015610e2a57610e2a8260405180602001604052806000815250611790565b50505050565b3415610e6457604051349033907f7e71433ddf847725166244795048ecf3e3f9f35628254ecbf73605666423349390600090a35b8051825114610e9f576040517f3bcc897900000000000000000000000000000000000000000000000000000000815260040160405180910390fd5b6000546001600160a01b031633819003610f035760005b8351811015610e2a57610efb848281518110610ed457610ed4612f54565b6020026020010151848381518110610eee57610eee612f54565b6020026020010151611f3e565b600101610eb6565b6000610f0e826115ee565b905060005b8451811015610f5357610f4b858281518110610f3157610f31612f54565b6020026020010151858381518110610eee57610eee612f54565b600101610f13565b508015610e2a57610e2a8260405180602001604052806000815250611790565b6060815167ffffffffffffffff811115610f8f57610f8f6128b8565b604051908082528060200260200182016040528015610fc257816020015b6060815260200190600190039081610fad5790505b50905060005b825181101561101857610ff3838281518110610fe657610fe6612f54565b6020026020010151611a30565b82828151811061100557611005612f54565b6020908102919091010152600101610fc8565b50919050565b6000546001600160a01b0316338190036110e4576003805460ff60a01b1916600160a01b17905561104e82611fb2565b816001600160a01b0316816001600160a01b03167f38d16b8cac22d99fc7c124b9cd0de2d3fa1faef420bfe791d8c362d765e2270060405160405180910390a36040805160208101909152600081526110d3906001600160a01b038416907fe17117c9d2665d1dbeb479ed8058bbebde3c50ac50e2e65619f60006caac692690611e18565b6003805460ff60a01b191690555050565b60006110ef826115ee565b6003805460ff60a01b1916600160a01b179055905061110d83611fb2565b826001600160a01b0316826001600160a01b03167f38d16b8cac22d99fc7c124b9cd0de2d3fa1faef420bfe791d8c362d765e2270060405160405180910390a3604080516020810190915260008152611192906001600160a01b038516907fe17117c9d2665d1dbeb479ed8058bbebde3c50ac50e2e65619f60006caac692690611e18565b6003805460ff60a01b191690558015610cc457610cc48260405180602001604052806000815250611790565b6000546001600160a01b03828116911614610c2257600080546001600160a01b038381166001600160a01b0319831681178455604051919092169283917f8be0079c531659141344cd1fd0a4f28419497f9722a3daafe3b4186f6b6457e09190a35050565b60608161123181601f613087565b101561127f5760405162461bcd60e51b815260206004820152600e60248201527f736c6963655f6f766572666c6f770000000000000000000000000000000000006044820152606401610461565b6112898284613087565b845110156112d95760405162461bcd60e51b815260206004820152601160248201527f736c6963655f6f75744f66426f756e64730000000000000000000000000000006044820152606401610461565b6060821580156112f85760405191506000825260208201604052611342565b6040519150601f8416801560200281840101858101878315602002848b0101015b81831015611331578051835260209283019201611319565b5050858452601f01601f1916604052505b5090505b9392505050565b6000806113847fcee78b4094da86011096000000000000000000000000000000000000000000006001600160e01b03198516611ca3565b9050600061139182611a30565b61139a90612fc1565b60601c949350505050565b60006001600160e01b031982167fa918fa6b00000000000000000000000000000000000000000000000000000000148061050857506105088261201b565b6000806113f66301ffc9a760e01b61134d565b90506001600160a01b03811661140f5750600092915050565b6113468184611ad2565b600080825160410361144f5760208301516040840151606085015160001a61144387828585612059565b94509450505050611457565b506000905060025b9250929050565b60608351855114158061147f57508251845114158061147f57508151835114155b156114b6576040517f3ff55f4d00000000000000000000000000000000000000000000000000000000815260040160405180910390fd5b84516000036114f1576040517fe9ad2b5f00000000000000000000000000000000000000000000000000000000815260040160405180910390fd5b6000855167ffffffffffffffff81111561150d5761150d6128b8565b60405190808252806020026020018201604052801561154057816020015b606081526020019060019003908161152b5790505b50905060005b86518110156115e4576115bf87828151811061156457611564612f54565b602002602001015187838151811061157e5761157e612f54565b602002602001015187848151811061159857611598612f54565b60200260200101518785815181106115b2576115b2612f54565b60200260200101516118da565b8282815181106115d1576115d1612f54565b6020908102919091010152600101611546565b5095945050505050565b6000806000836001600160a01b0316639bf04b1160e01b333460003660405160240161161d949392919061309a565b60408051601f198184030181529181526020820180516001600160e01b03166001600160e01b031990941693909317909252905161165b9190612ef0565b6000604051808303816000865af19150503d8060008114611698576040519150601f19603f3d011682016040523d82523d6000602084013e61169d565b606091505b50915091506116ae6000838361211d565b6000818060200190518101906116c491906130c3565b90507fffffff000000000000000000000000000000000000000000000000000000000081167f9bf04b00000000000000000000000000000000000000000000000000000000001461172d5760008260405163034223b160e61b81526004016104619291906130e0565b7f01000000000000000000000000000000000000000000000000000000000000007fff00000000000000000000000000000000000000000000000000000000000000600383901a60f81b1614611784576000611787565b60015b95945050505050565b600080836001600160a01b031663d3fc45d360e01b33346000366040516020016117bd94939291906130fb565b60405160208183030381529060405280519060200120856040516024016117e5929190612f0c565b60408051601f198184030181529181526020820180516001600160e01b03166001600160e01b03199094169390931790925290516118239190612ef0565b6000604051808303816000865af19150503d8060008114611860576040519150601f19603f3d011682016040523d82523d6000602084013e611865565b606091505b50915091506118766001838361211d565b80517fd3fc45d300000000000000000000000000000000000000000000000000000000906118ad90830160209081019084016130c3565b6001600160e01b03191614610e2a5760018160405163034223b160e61b81526004016104619291906130e0565b6060846118f3576118ec848484612172565b905061085a565b6001850361192d576001600160a01b0384161561192357604051631820c12560e11b815260040160405180910390fd5b6118ec838361229e565b60028503611967576001600160a01b0384161561195d57604051631820c12560e11b815260040160405180910390fd5b6118ec83836123b8565b600385036119b15782156119a7576040517f72f2bc6a00000000000000000000000000000000000000000000000000000000815260040160405180910390fd5b6118ec84836124a2565b600485036119fb5782156119f1576040517f5ac8313500000000000000000000000000000000000000000000000000000000815260040160405180910390fd5b6118ec8483612598565b6040517f7583b3bc00000000000000000000000000000000000000000000000000000000815260048101869052602401610461565b6000818152600160205260409020805460609190611a4d9061312e565b80601f0160208091040260200160405190810160405280929190818152602001828054611a799061312e565b8015611ac65780601f10611a9b57610100808354040283529160200191611ac6565b820191906000526020600020905b815481529060010190602001808311611aa957829003601f168201915b50505050509050919050565b604080516001600160e01b03198316602480830191909152825180830390910181526044909101909152602080820180516001600160e01b03166301ffc9a760e01b178152825160009392849283928392918391908a617530fa92503d91506000519050828015611b44575060208210155b8015611b505750600081115b979650505050505050565b60606000636bb56a1460e01b878787604051602401611b7c93929190613162565b60408051601f19818403018152918152602080830180516001600160e01b03166001600160e01b03199095169490941790935251611bbe92879187910161317c565b6040516020818303038152906040529050600080896001600160a01b031683604051611bea9190612ef0565b6000604051808303816000865af19150503d8060008114611c27576040519150601f19603f3d011682016040523d82523d6000602084013e611c2c565b606091505b5091509150611c7182826040518060400160405280602081526020017f43616c6c20746f20756e6976657273616c5265636569766572206661696c6564815250612644565b508051600003611c815780611c95565b80806020019051810190611c9591906131bb565b9a9950505050505050505050565b604080517fffffffffffffffffffff00000000000000000000000000000000000000000000841660208201526000602a82018190526bffffffffffffffffffffffff198416602c8301529182910160405160208183030381529060405290508061085a90613229565b6002544390600090611d209060c890613087565b90506000611d2f60c883613087565b905080831180611d3f5750600254155b15611d87576002839055600380546001600160a01b03191690556040517f81b7f830f1f0084db6497c486cbe6974c86488dcc4e3738eab94ab6d6b1653e790600090a1505050565b81831015611dcb576040517f8b9bf5070000000000000000000000000000000000000000000000000000000081526004810183905260248101829052604401610461565b611dd560006111be565b60006002819055600380546001600160a01b03191690556040517fd1f66c3d2bc1993a86be5e3d33709d98f0442381befcedd29f578b9b2506b1ce9190a1505050565b611e2983631aed5a8560e21b611ad2565b15610cc457604051631aed5a8560e21b81526001600160a01b03841690636bb56a1490611e5c9085908590600401612f0c565b6000604051808303816000875af1158015611e7b573d6000803e3d6000fd5b505050506040513d6000823e601f3d908101601f19168201604052610e2a91908101906131bb565b6003546001600160a01b03163314611f235760405162461bcd60e51b815260206004820152602560248201527f4c535031343a2063616c6c6572206973206e6f74207468652070656e64696e6760448201527f4f776e65720000000000000000000000000000000000000000000000000000006064820152608401610461565b611f2c336111be565b600380546001600160a01b0319169055565b6000828152600160205260409020611f56828261329b565b50817fece574603820d07bc9b91f2a932baadf4628aabcb8afba49776529c14a6104b261010083511115611f9757611f92836000610100611223565b611f99565b825b604051611fa69190612cf9565b60405180910390a25050565b306001600160a01b03821603611ff4576040517f43b248cd00000000000000000000000000000000000000000000000000000000815260040160405180910390fd5b600380546001600160a01b0319166001600160a01b03929092169190911790556000600255565b60006001600160e01b031982167f629aa69400000000000000000000000000000000000000000000000000000000148061050857506105088261265d565b6000807f7fffffffffffffffffffffffffffffff5d576e7357a4501ddfe92f46681b20a08311156120905750600090506003612114565b6040805160008082526020820180845289905260ff881692820192909252606081018690526080810185905260019060a0016020604051602081039080840390855afa1580156120e4573d6000803e3d6000fd5b5050604051601f1901519150506001600160a01b03811661210d57600060019250925050612114565b9150600090505b94509492505050565b8161212c5761212c83826126ab565b60208151108061215057506000602061214483613229565b63ffffffff19911b1614155b15610cc457828160405163034223b160e61b81526004016104619291906130e0565b60608247101561219e576040516301bf351f60e31b815247600482015260248101849052604401610461565b826001600160a01b03851660007f4810874456b8e6487bd861375cf6abd8e1c8bb5858c8ce36a86a04dabfac199e6121d58661335b565b6040516001600160e01b0319909116815260200160405180910390a4600080856001600160a01b0316858560405161220d9190612ef0565b60006040518083038185875af1925050503d806000811461224a576040519150601f19603f3d011682016040523d82523d6000602084013e61224f565b606091505b509150915061229482826040518060400160405280601681526020017f455243373235583a20556e6b6e6f776e204572726f7200000000000000000000815250612644565b9695505050505050565b6060824710156122ca576040516301bf351f60e31b815247600482015260248101849052604401610461565b81516000036122ec5760405163b81cd8d960e01b815260040160405180910390fd5b600082516020840185f090506001600160a01b038116612338576040517f0b07489b00000000000000000000000000000000000000000000000000000000815260040160405180910390fd5b83816001600160a01b031660017fa1fb700aaee2ae4a2ff6f91ce7eba292f89c2f5488b8ec4c5c5c8150692595c36000801b60405161237991815260200190565b60405180910390a46040516bffffffffffffffffffffffff19606083901b16602082015260340160405160208183030381529060405291505092915050565b606081516000036123dc5760405163b81cd8d960e01b815260040160405180910390fd5b60006123f583602085516123f0919061338f565b6126f1565b905060006124128460006020875161240d919061338f565b611223565b90506000612421868484612757565b905085816001600160a01b031660027fa1fb700aaee2ae4a2ff6f91ce7eba292f89c2f5488b8ec4c5c5c8150692595c38660405161246191815260200190565b60405180910390a46040516bffffffffffffffffffffffff19606083901b166020820152603401604051602081830303815290604052935050505092915050565b606060006001600160a01b03841660037f4810874456b8e6487bd861375cf6abd8e1c8bb5858c8ce36a86a04dabfac199e6124dc8661335b565b6040516001600160e01b0319909116815260200160405180910390a4600080846001600160a01b0316846040516125139190612ef0565b600060405180830381855afa9150503d806000811461254e576040519150601f19603f3d011682016040523d82523d6000602084013e612553565b606091505b509150915061178782826040518060400160405280601681526020017f455243373235583a20556e6b6e6f776e204572726f7200000000000000000000815250612644565b606060006001600160a01b03841660047f4810874456b8e6487bd861375cf6abd8e1c8bb5858c8ce36a86a04dabfac199e6125d28661335b565b6040516001600160e01b0319909116815260200160405180910390a4600080846001600160a01b0316846040516126099190612ef0565b600060405180830381855af49150503d806000811461254e576040519150601f19603f3d011682016040523d82523d6000602084013e612553565b60608315612653575081611346565b611346838361285b565b60006001600160e01b031982167f7545acac00000000000000000000000000000000000000000000000000000000148061050857506301ffc9a760e01b6001600160e01b0319831614610508565b8051156126bb5780518082602001fd5b6040517f8c6a8ae30000000000000000000000000000000000000000000000000000000081528215156004820152602401610461565b60006126fe826020613087565b8351101561274e5760405162461bcd60e51b815260206004820152601560248201527f746f427974657333325f6f75744f66426f756e647300000000000000000000006044820152606401610461565b50016020015190565b6000834710156127a95760405162461bcd60e51b815260206004820152601d60248201527f437265617465323a20696e73756666696369656e742062616c616e63650000006044820152606401610461565b81516000036127fa5760405162461bcd60e51b815260206004820181905260248201527f437265617465323a2062797465636f6465206c656e677468206973207a65726f6044820152606401610461565b8282516020840186f590506001600160a01b0381166113465760405162461bcd60e51b815260206004820152601960248201527f437265617465323a204661696c6564206f6e206465706c6f79000000000000006044820152606401610461565b81511561286b5781518083602001fd5b8060405162461bcd60e51b81526004016104619190612cf9565b6001600160e01b031981168114610c2257600080fd5b6000602082840312156128ad57600080fd5b813561134681612885565b634e487b7160e01b600052604160045260246000fd5b604051601f8201601f1916810167ffffffffffffffff811182821017156128f7576128f76128b8565b604052919050565b600067ffffffffffffffff821115612919576129196128b8565b50601f01601f191660200190565b600082601f83011261293857600080fd5b813561294b612946826128ff565b6128ce565b81815284602083860101111561296057600080fd5b816020850160208301376000918101602001919091529392505050565b6000806040838503121561299057600080fd5b82359150602083013567ffffffffffffffff8111156129ae57600080fd5b6129ba85828601612927565b9150509250929050565b600067ffffffffffffffff8211156129de576129de6128b8565b5060051b60200190565b600082601f8301126129f957600080fd5b81356020612a09612946836129c4565b82815260059290921b84018101918181019086841115612a2857600080fd5b8286015b84811015612a435780358352918301918301612a2c565b509695505050505050565b80356001600160a01b0381168114612a6557600080fd5b919050565b600082601f830112612a7b57600080fd5b81356020612a8b612946836129c4565b82815260059290921b84018101918181019086841115612aaa57600080fd5b8286015b84811015612a4357803567ffffffffffffffff811115612ace5760008081fd5b612adc8986838b0101612927565b845250918301918301612aae565b60008060008060808587031215612b0057600080fd5b843567ffffffffffffffff80821115612b1857600080fd5b612b24888389016129e8565b9550602091508187013581811115612b3b57600080fd5b8701601f81018913612b4c57600080fd5b8035612b5a612946826129c4565b81815260059190911b8201840190848101908b831115612b7957600080fd5b928501925b82841015612b9e57612b8f84612a4e565b82529285019290850190612b7e565b97505050506040870135915080821115612bb757600080fd5b612bc3888389016129e8565b93506060870135915080821115612bd957600080fd5b50612be687828801612a6a565b91505092959194509250565b60005b83811015612c0d578181015183820152602001612bf5565b50506000910152565b60008151808452612c2e816020860160208601612bf2565b601f01601f19169290920160200192915050565b6000602080830181845280855180835260408601915060408160051b870101925083870160005b82811015612c9757603f19888603018452612c85858351612c16565b94509285019290850190600101612c69565b5092979650505050505050565b60008060008060808587031215612cba57600080fd5b84359350612cca60208601612a4e565b925060408501359150606085013567ffffffffffffffff811115612ced57600080fd5b612be687828801612927565b6020815260006113466020830184612c16565b600060208284031215612d1e57600080fd5b5035919050565b60008060208385031215612d3857600080fd5b823567ffffffffffffffff80821115612d5057600080fd5b818501915085601f830112612d6457600080fd5b813581811115612d7357600080fd5b8660208260051b8501011115612d8857600080fd5b60209290920196919550909350505050565b600080600060408486031215612daf57600080fd5b83359250602084013567ffffffffffffffff80821115612dce57600080fd5b818601915086601f830112612de257600080fd5b813581811115612df157600080fd5b876020828501011115612e0357600080fd5b6020830194508093505050509250925092565b60008060408385031215612e2957600080fd5b823567ffffffffffffffff80821115612e4157600080fd5b612e4d868387016129e8565b93506020850135915080821115612e6357600080fd5b506129ba85828601612a6a565b600060208284031215612e8257600080fd5b813567ffffffffffffffff811115612e9957600080fd5b61085a848285016129e8565b600060208284031215612eb757600080fd5b61134682612a4e565b8385823760609290921b6bffffffffffffffffffffffff1916919092019081526014810191909152603401919050565b60008251612f02818460208701612bf2565b9190910192915050565b82815260406020820152600061085a6040830184612c16565b600060208284031215612f3757600080fd5b5051919050565b634e487b7160e01b600052602160045260246000fd5b634e487b7160e01b600052603260045260246000fd5b6000808335601e19843603018112612f8157600080fd5b83018035915067ffffffffffffffff821115612f9c57600080fd5b60200191503681900382131561145757600080fd5b8183823760009101908152919050565b805160208201516bffffffffffffffffffffffff198082169291906014831015612ff55780818460140360031b1b83161693505b505050919050565b6040815260006130106040830185612c16565b82810360208401526117878185612c16565b81835281816020850137506000828201602090810191909152601f909101601f19169091010190565b60408152600061305f604083018587613022565b82810360208401526122948185612c16565b634e487b7160e01b600052601160045260246000fd5b8082018082111561050857610508613071565b6001600160a01b0385168152836020820152606060408201526000612294606083018486613022565b6000602082840312156130d557600080fd5b815161134681612885565b821515815260406020820152600061085a6040830184612c16565b6bffffffffffffffffffffffff198560601b16815283601482015281836034830137600091016034019081529392505050565b600181811c9082168061314257607f821691505b60208210810361101857634e487b7160e01b600052602260045260246000fd5b838152604060208201526000611787604083018486613022565b6000845161318e818460208901612bf2565b60609490941b6bffffffffffffffffffffffff191691909301908152601481019190915260340192915050565b6000602082840312156131cd57600080fd5b815167ffffffffffffffff8111156131e457600080fd5b8201601f810184136131f557600080fd5b8051613203612946826128ff565b81815285602083850101111561321857600080fd5b611787826020830160208601612bf2565b805160208083015191908110156110185760001960209190910360031b1b16919050565b601f821115610cc457600081815260208120601f850160051c810160208610156132745750805b601f850160051c820191505b8181101561329357828155600101613280565b505050505050565b815167ffffffffffffffff8111156132b5576132b56128b8565b6132c9816132c3845461312e565b8461324d565b602080601f8311600181146132fe57600084156132e65750858301515b600019600386901b1c1916600185901b178555613293565b600085815260208120601f198616915b8281101561332d5788860151825594840194600190910190840161330e565b508582101561334b5787850151600019600388901b60f8161c191681555b5050505050600190811b01905550565b6000815160208301516001600160e01b031980821693506004831015612ff55760049290920360031b82901b161692915050565b818103818111156105085761050861307156fea26469706673582212202d24dc040de6b28c7afe67ef21cda2f3e5142395014082b1e6c82c2c5981cf5664736f6c63430008110033",
  "linkReferences": {},
  "deployedLinkReferences": {}
}